:020000040800F2
:1000000000020020D1000008AF000008AF00000887
:10001000AF000008AF000008AF00000800000000BB
:10002000000000000000000000000000AF00000819
:10003000AF00000800000000AF000008AF0000089B
:100040000F48006850F016000D4908600D48006820
:1000500050F440100B4908600B484FF6FF710160E7
:1000600000200A49884201DA401CFAE706480021CC
:100070000160002005498842EEDA401CFAE700BF23
:1000800018100240041001400C10014040420F00C3
:1000900000F009F8002801D0C046C0460020FFF754
:1000A000CFFF00F002F80120704700F001B8FEE732
:1000B0000746384600F002F8FBE7000080B5C0466E
:1000C000C046024A11001820ABBEFBE72600020022
:0C00D000C046C046C046C046FFF7DAFF3D
:04000005080000D11E
:00000001FF
