:020000040800F2
:1000000000020020ED000008CB000008CB00000833
:10001000CB000008CB000008CB0000080000000067
:10002000000000000000000000000000CB000008FD
:10003000CB00000800000000CB000008CB00000847
:100040001448006840F4805050F0050011490860E1
:1000500011480068114908430F49086010480068BA
:1000600040F4804050F07C000D4908600D484AF68D
:10007000AA21016000200C49884201DA401CFAE7FD
:1000800008484AF6AA210160002007498842EDDAB3
:10009000401CFAE718100240000801400000B0B40C
:1000A000003001400C30014041420F0000F009F8DF
:1000B000002801D0C046C0460020FFF7C1FF00F075
:1000C00002F80120704700F001B8FEE70746384605
:1000D00000F002F8FBE7000080B5C046C046024AC7
:1000E00011001820ABBEFBE726000200C046C04648
:0800F000C046C046FFF7DAFF2D
:04000005080000ED02
:00000001FF
