:020000040800F2
:1000000000020020F5000008D3000008D30000081B
:10001000D3000008D3000008D3000008000000004F
:10002000000000000000000000000000D3000008F5
:10003000D300000800000000D3000008D30000082F
:100040001748006850F4803015490860144800686B
:10005000002801D0012000E00020C0B20028F5D027
:100060001048006850F016000E4908600E480068FD
:1000700050F440100C4908600C484FF6FF710160C5
:1000800000200B49884201DA401CFAE707480021AA
:100090000160002006498842EEDA401CFAE700BF02
:1000A0000010024018100240041001400C100140E2
:1000B00040420F0000F009F8002801D0C046C046B9
:1000C0000020FFF7BDFF00F002F80120704700F0AC
:1000D00001B8FEE70746384600F002F8FBE70000EB
:1000E00080B5C046C046024A11001820ABBEFBE7EF
:1000F00026000200C046C046C046C046FFF7DAFFF1
:04000005080000F5FA
:00000001FF
