:020000040800F2
:100000000002002009020008E7010008E7010008DB
:10001000E7010008E7010008E70100080000000010
:10002000000000000000000000000000E7010008E0
:10003000E701000800000000E7010008E7010008F0
:10004000F0B400220026002400250023002791F8A8
:1000500003C01CF00F0C624691F803C05FEACC6C41
:1000600001D58B781A430B781B0621D00368002436
:1000700006E0CD78482D02D10125A5400561641C1C
:10008000082C14D20125A5400E882E40AE42F6D190
:10009000A5000F2616FA05F7BB4312FA05F52B4308
:1000A000CD78282DE5D10125A5404561E7E703601E
:1000B0000B884FF48074A34226D34368002420E0C9
:1000C000012514F10806B5400E882E40AE4217D126
:1000D000A5000F2616FA05F7BB4312FA05F52B43C8
:1000E000CD78282D04D1012514F10806B5404561CD
:1000F000CD78482D04D1012514F10806B5400561DD
:10010000641C082CDCD34360F0BC704789B20161E9
:10011000704789B24161704780B5002000F030F827
:1001200000F038F80028FBD10121102000F037F84A
:100130004FF40050ADF8000010208DF803000320AC
:100140008DF8020000A90C48FFF77AFF4FF4005128
:100150000948FFF7DBFF002000E0401C0749884208
:10016000FBDB4FF400510448FFF7D3FF00200349A5
:100170008842EBDA401CFAE700100140400D030012
:1001800000210F4A126811008908890001430C48B8
:10019000016070470A48006810F00C007047C9B24F
:1001A000002905D00749096808430649086005E0A9
:1001B0000449096831EA00000249086070470000FC
:1001C000041002401810024000F009F8002801D085
:1001D000C046C0460020FFF79FFF00F002F8012054
:1001E000704700F001B8FEE70746384600F002F815
:1001F000FBE7000080B5C046C046024A1100182047
:10020000ABBEFBE726000200C046C046C046C04663
:04021000FFF7DAFF1B
:0400000508000209E4
:00000001FF
