:020000040800F2
:10000000000200201D010008FB000008FB000008A2
:10001000FB000008FB000008FB00000800000000D7
:10002000000000000000000000000000FB000008CD
:10003000FB00000800000000FB000008FB000008B7
:100040002048006850F480301E4908601D48006850
:10005000002801D0012000E00020C0B20028F5D027
:100060001948006850F001001749086015480068F9
:1000700050F08070134908601348006850F0020087
:10008000114908601148006850F016000F490860D7
:100090000F48006850F440100D4908600D484FF6B5
:1000A000FF71016000200C49884201DA401CFAE728
:1000B000084800210160002007498842EEDA401C10
:1000C000FAE700BF0010024004100240181002407E
:1000D000041001400C10014040420F0000F009F8EC
:1000E000002801D0C046C0460020FFF7A9FF00F05D
:1000F00002F80120704700F001B8FEE707463846D5
:1001000000F002F8FBE7000080B5C046C046024A96
:1001100011001820ABBEFBE726000200C046C04617
:08012000C046C046FFF7DAFFFC
:040000050800011DD1
:00000001FF
