:020000040800F2
:1000000000020020650100084301000843010008C8
:1000100043010008430100084301000800000000FC
:100020000000000000000000000000004301000884
:1000300043010008000000004301000843010008DC
:100040002E48006850F480302C4908602B48006826
:10005000002801D0012000E00020C0B20028F5D027
:100060002748006850F001002549086025480068CD
:1000700040F4804050F01700224908602248006890
:1000800050F49E60204908602048006840F24D31DD
:1000900008431E4908601E48006840F4005050F0B4
:1000A00008001B4908601B48006850F048001949C7
:1000B00008601948006850F4401017490860174854
:1000C0004FF6FF7101601348006850F04800114975
:1000D000086000201249884201DA401CFAE70F4804
:1000E000002101600B48006850F048000949086091
:1000F00000200B498842E2DA401CFAE70010024077
:100100000410024018100240040801400838014061
:100110000C38014004380140041001400C1001402B
:1001200040420F0000F009F8002801D0C046C04648
:100130000020FFF785FF00F002F80120704700F073
:1001400001B8FEE70746384600F002F8FBE700007A
:1001500080B5C046C046024A11001820ABBEFBE77E
:1001600026000200C046C046C046C046FFF7DAFF80
:040000050800016589
:00000001FF
